{
  "contractName": "SocialMusic",
  "abi": [
    {
      "inputs": [
        {
          "internalType": "uint256",
          "name": "",
          "type": "uint256"
        }
      ],
      "name": "userList",
      "outputs": [
        {
          "internalType": "address",
          "name": "",
          "type": "address"
        }
      ],
      "stateMutability": "view",
      "type": "function"
    },
    {
      "inputs": [
        {
          "internalType": "address",
          "name": "",
          "type": "address"
        }
      ],
      "name": "users",
      "outputs": [
        {
          "internalType": "bytes32",
          "name": "name",
          "type": "bytes32"
        },
        {
          "internalType": "uint8",
          "name": "age",
          "type": "uint8"
        },
        {
          "internalType": "string",
          "name": "state",
          "type": "string"
        }
      ],
      "stateMutability": "view",
      "type": "function"
    },
    {
      "inputs": [
        {
          "internalType": "string",
          "name": "_songName",
          "type": "string"
        }
      ],
      "name": "addSong",
      "outputs": [],
      "stateMutability": "nonpayable",
      "type": "function"
    },
    {
      "inputs": [
        {
          "internalType": "bytes32",
          "name": "_name",
          "type": "bytes32"
        },
        {
          "internalType": "uint8",
          "name": "_age",
          "type": "uint8"
        },
        {
          "internalType": "string",
          "name": "_state",
          "type": "string"
        }
      ],
      "name": "setup",
      "outputs": [],
      "stateMutability": "nonpayable",
      "type": "function"
    },
    {
      "inputs": [
        {
          "internalType": "address",
          "name": "_user",
          "type": "address"
        }
      ],
      "name": "follow",
      "outputs": [],
      "stateMutability": "nonpayable",
      "type": "function"
    },
    {
      "inputs": [],
      "name": "getUsersList",
      "outputs": [
        {
          "internalType": "address[]",
          "name": "",
          "type": "address[]"
        }
      ],
      "stateMutability": "view",
      "type": "function"
    },
    {
      "inputs": [
        {
          "internalType": "address",
          "name": "_user",
          "type": "address"
        }
      ],
      "name": "getUsersMusicRecommendationLength",
      "outputs": [
        {
          "internalType": "uint256",
          "name": "",
          "type": "uint256"
        }
      ],
      "stateMutability": "view",
      "type": "function"
    },
    {
      "inputs": [
        {
          "internalType": "address",
          "name": "_user",
          "type": "address"
        }
      ],
      "name": "getUsersFollowings",
      "outputs": [
        {
          "internalType": "address[]",
          "name": "",
          "type": "address[]"
        }
      ],
      "stateMutability": "view",
      "type": "function"
    }
  ],
  "bytecode": "0x608060405234801561001057600080fd5b50611133806100206000396000f3fe608060405234801561001057600080fd5b50600436106100885760003560e01c80639f4216e81161005b5780639f4216e814610111578063a87430ba14610141578063c74e13f314610173578063ebf072481461019157610088565b80634dbf27cc1461008d57806364f7d043146100a95780637f590f5e146100c5578063971c6c7f146100e1575b600080fd5b6100a760048036038101906100a29190610b87565b6101c1565b005b6100c360048036038101906100be9190610d69565b6102a0565b005b6100df60048036038101906100da9190610dd8565b6105e1565b005b6100fb60048036038101906100f69190610b87565b61067b565b6040516101089190610e3a565b60405180910390f35b61012b60048036038101906101269190610e81565b6106c9565b6040516101389190610ebd565b60405180910390f35b61015b60048036038101906101569190610b87565b610708565b60405161016a93929190610f7e565b60405180910390f35b61017b6107c7565b604051610188919061107a565b60405180910390f35b6101ab60048036038101906101a69190610b87565b610855565b6040516101b8919061107a565b60405180910390f35b600073ffffffffffffffffffffffffffffffffffffffff168173ffffffffffffffffffffffffffffffffffffffff1614156101fb57600080fd5b6000803373ffffffffffffffffffffffffffffffffffffffff1673ffffffffffffffffffffffffffffffffffffffff168152602001908152602001600020600401819080600181540180825580915050600190039060005260206000200160009091909190916101000a81548173ffffffffffffffffffffffffffffffffffffffff021916908373ffffffffffffffffffffffffffffffffffffffff16021790555050565b6000602060ff16116102b157600080fd5b60006040518060a001604052808581526020018460ff1681526020018381526020016000803373ffffffffffffffffffffffffffffffffffffffff1673ffffffffffffffffffffffffffffffffffffffff168152602001908152602001600020600301805480602002602001604051908101604052809291908181526020016000905b828210156103e0578382906000526020600020018054610353906110cb565b80601f016020809104026020016040519081016040528092919081815260200182805461037f906110cb565b80156103cc5780601f106103a1576101008083540402835291602001916103cc565b820191906000526020600020905b8154815290600101906020018083116103af57829003601f168201915b505050505081526020019060010190610334565b5050505081526020016000803373ffffffffffffffffffffffffffffffffffffffff1673ffffffffffffffffffffffffffffffffffffffff1681526020019081526020016000206004018054806020026020016040519081016040528092919081815260200182805480156104aa57602002820191906000526020600020905b8160009054906101000a900473ffffffffffffffffffffffffffffffffffffffff1673ffffffffffffffffffffffffffffffffffffffff1681526020019060010190808311610460575b50505050508152509050806000803373ffffffffffffffffffffffffffffffffffffffff1673ffffffffffffffffffffffffffffffffffffffff1681526020019081526020016000206000820151816000015560208201518160010160006101000a81548160ff021916908360ff160217905550604082015181600201908051906020019061053a929190610924565b5060608201518160030190805190602001906105579291906109aa565b506080820151816004019080519060200190610574929190610a0a565b509050506001339080600181540180825580915050600190039060005260206000200160009091909190916101000a81548173ffffffffffffffffffffffffffffffffffffffff021916908373ffffffffffffffffffffffffffffffffffffffff16021790555050505050565b600081511180156105f457506064815111155b6105fd57600080fd5b6000803373ffffffffffffffffffffffffffffffffffffffff1673ffffffffffffffffffffffffffffffffffffffff16815260200190815260200160002060030181908060018154018082558091505060019003906000526020600020016000909190919091509080519060200190610677929190610924565b5050565b60008060008373ffffffffffffffffffffffffffffffffffffffff1673ffffffffffffffffffffffffffffffffffffffff168152602001908152602001600020600301805490509050919050565b600181815481106106d957600080fd5b906000526020600020016000915054906101000a900473ffffffffffffffffffffffffffffffffffffffff1681565b60006020528060005260406000206000915090508060000154908060010160009054906101000a900460ff1690806002018054610744906110cb565b80601f0160208091040260200160405190810160405280929190818152602001828054610770906110cb565b80156107bd5780601f10610792576101008083540402835291602001916107bd565b820191906000526020600020905b8154815290600101906020018083116107a057829003601f168201915b5050505050905083565b6060600180548060200260200160405190810160405280929190818152602001828054801561084b57602002820191906000526020600020905b8160009054906101000a900473ffffffffffffffffffffffffffffffffffffffff1673ffffffffffffffffffffffffffffffffffffffff1681526020019060010190808311610801575b5050505050905090565b60606000808373ffffffffffffffffffffffffffffffffffffffff1673ffffffffffffffffffffffffffffffffffffffff16815260200190815260200160002060040180548060200260200160405190810160405280929190818152602001828054801561091857602002820191906000526020600020905b8160009054906101000a900473ffffffffffffffffffffffffffffffffffffffff1673ffffffffffffffffffffffffffffffffffffffff16815260200190600101908083116108ce575b50505050509050919050565b828054610930906110cb565b90600052602060002090601f0160209004810192826109525760008555610999565b82601f1061096b57805160ff1916838001178555610999565b82800160010185558215610999579182015b8281111561099857825182559160200191906001019061097d565b5b5090506109a69190610a94565b5090565b8280548282559060005260206000209081019282156109f9579160200282015b828111156109f85782518290805190602001906109e8929190610924565b50916020019190600101906109ca565b5b509050610a069190610ab1565b5090565b828054828255906000526020600020908101928215610a83579160200282015b82811115610a825782518260006101000a81548173ffffffffffffffffffffffffffffffffffffffff021916908373ffffffffffffffffffffffffffffffffffffffff16021790555091602001919060010190610a2a565b5b509050610a909190610a94565b5090565b5b80821115610aad576000816000905550600101610a95565b5090565b5b80821115610ad15760008181610ac89190610ad5565b50600101610ab2565b5090565b508054610ae1906110cb565b6000825580601f10610af35750610b12565b601f016020900490600052602060002090810190610b119190610a94565b5b50565b6000604051905090565b600080fd5b600080fd5b600073ffffffffffffffffffffffffffffffffffffffff82169050919050565b6000610b5482610b29565b9050919050565b610b6481610b49565b8114610b6f57600080fd5b50565b600081359050610b8181610b5b565b92915050565b600060208284031215610b9d57610b9c610b1f565b5b6000610bab84828501610b72565b91505092915050565b6000819050919050565b610bc781610bb4565b8114610bd257600080fd5b50565b600081359050610be481610bbe565b92915050565b600060ff82169050919050565b610c0081610bea565b8114610c0b57600080fd5b50565b600081359050610c1d81610bf7565b92915050565b600080fd5b600080fd5b6000601f19601f8301169050919050565b7f4e487b7100000000000000000000000000000000000000000000000000000000600052604160045260246000fd5b610c7682610c2d565b810181811067ffffffffffffffff82111715610c9557610c94610c3e565b5b80604052505050565b6000610ca8610b15565b9050610cb48282610c6d565b919050565b600067ffffffffffffffff821115610cd457610cd3610c3e565b5b610cdd82610c2d565b9050602081019050919050565b82818337600083830152505050565b6000610d0c610d0784610cb9565b610c9e565b905082815260208101848484011115610d2857610d27610c28565b5b610d33848285610cea565b509392505050565b600082601f830112610d5057610d4f610c23565b5b8135610d60848260208601610cf9565b91505092915050565b600080600060608486031215610d8257610d81610b1f565b5b6000610d9086828701610bd5565b9350506020610da186828701610c0e565b925050604084013567ffffffffffffffff811115610dc257610dc1610b24565b5b610dce86828701610d3b565b9150509250925092565b600060208284031215610dee57610ded610b1f565b5b600082013567ffffffffffffffff811115610e0c57610e0b610b24565b5b610e1884828501610d3b565b91505092915050565b6000819050919050565b610e3481610e21565b82525050565b6000602082019050610e4f6000830184610e2b565b92915050565b610e5e81610e21565b8114610e6957600080fd5b50565b600081359050610e7b81610e55565b92915050565b600060208284031215610e9757610e96610b1f565b5b6000610ea584828501610e6c565b91505092915050565b610eb781610b49565b82525050565b6000602082019050610ed26000830184610eae565b92915050565b610ee181610bb4565b82525050565b610ef081610bea565b82525050565b600081519050919050565b600082825260208201905092915050565b60005b83811015610f30578082015181840152602081019050610f15565b83811115610f3f576000848401525b50505050565b6000610f5082610ef6565b610f5a8185610f01565b9350610f6a818560208601610f12565b610f7381610c2d565b840191505092915050565b6000606082019050610f936000830186610ed8565b610fa06020830185610ee7565b8181036040830152610fb28184610f45565b9050949350505050565b600081519050919050565b600082825260208201905092915050565b6000819050602082019050919050565b610ff181610b49565b82525050565b60006110038383610fe8565b60208301905092915050565b6000602082019050919050565b600061102782610fbc565b6110318185610fc7565b935061103c83610fd8565b8060005b8381101561106d5781516110548882610ff7565b975061105f8361100f565b925050600181019050611040565b5085935050505092915050565b60006020820190508181036000830152611094818461101c565b905092915050565b7f4e487b7100000000000000000000000000000000000000000000000000000000600052602260045260246000fd5b600060028204905060018216806110e357607f821691505b602082108114156110f7576110f661109c565b5b5091905056fea2646970667358221220d2d3f980917f200cd83a1fa193e4adbf5db2cf98aa84455b0c3fc9fc1c320ee064736f6c634300080a0033",
  "immutableReferences": {},
  "source": "pragma solidity 0.8.10;\r\n\r\ncontract SocialMusic {\r\n    \r\n    struct User {\r\n        bytes32 name;\r\n        uint8 age;\r\n        string state; //A short description of who they are and what they feel.\r\n        string[] musicRecommendations;\r\n        address[] following;\r\n    }\r\n\r\n    mapping(address => User) public users;\r\n    address[] public userList;\r\n    \r\n    //To add a new music recommendation\r\n    function addSong(string memory _songName) public {\r\n        require(bytes(_songName).length > 0 && bytes(_songName).length <= 100);\r\n\r\n        users[msg.sender].musicRecommendations.push(_songName);\r\n    }\r\n\r\n    //To setup user information\r\n    function setup(bytes32 _name, uint8 _age, string memory _state) public {\r\n        require(_name.length > 0);\r\n\r\n        User memory newUser = User(_name, _age, _state,\r\n        users[msg.sender].musicRecommendations, users[msg.sender].following);\r\n\r\n        users[msg.sender] = newUser;\r\n        userList.push(msg.sender);\r\n    }\r\n\r\n    //To follow new users\r\n    function follow(address _user) public {\r\n         require(_user != address(0));\r\n\r\n         users[msg.sender].following.push(_user);       \r\n    }\r\n\r\n    //Returns the array of users\r\n    function getUsersList() public view returns(address[] memory) {\r\n        return userList;\r\n    }\r\n\r\n    //Returns the music recommendations\r\n    function getUsersMusicRecommendationLength(address _user) public view returns(uint256) {\r\n        return users[_user].musicRecommendations.length;\r\n    }\r\n\r\n    //Returns the addresses of the users _user is following\r\n    function getUsersFollowings(address _user) public view returns(address[] memory) {\r\n        return users[_user].following;\r\n    }\r\n}\r\n",
  "sourcePath": "F:\\Ethereum\\Projects\\Music-Social-Media-dApp\\contracts\\SocialMusic.sol",
  "compiler": {
    "name": "solc",
    "version": "0.8.10+commit.fc410830.Emscripten.clang"
  },
  "schemaVersion": "3.4.4",
  "updatedAt": "2022-01-16T11:14:29.925Z",
  "devdoc": {
    "kind": "dev",
    "methods": {},
    "version": 1
  },
  "userdoc": {
    "kind": "user",
    "methods": {},
    "version": 1
  }
}