{
  "contractName": "SocialMusic",
  "abi": [
    {
      "inputs": [
        {
          "internalType": "uint256",
          "name": "",
          "type": "uint256"
        }
      ],
      "name": "userList",
      "outputs": [
        {
          "internalType": "address",
          "name": "",
          "type": "address"
        }
      ],
      "stateMutability": "view",
      "type": "function"
    },
    {
      "inputs": [
        {
          "internalType": "address",
          "name": "",
          "type": "address"
        }
      ],
      "name": "users",
      "outputs": [
        {
          "internalType": "bytes32",
          "name": "name",
          "type": "bytes32"
        },
        {
          "internalType": "uint8",
          "name": "age",
          "type": "uint8"
        },
        {
          "internalType": "string",
          "name": "state",
          "type": "string"
        }
      ],
      "stateMutability": "view",
      "type": "function"
    },
    {
      "inputs": [
        {
          "internalType": "string",
          "name": "_songName",
          "type": "string"
        }
      ],
      "name": "addSong",
      "outputs": [],
      "stateMutability": "nonpayable",
      "type": "function"
    },
    {
      "inputs": [
        {
          "internalType": "bytes32",
          "name": "_name",
          "type": "bytes32"
        },
        {
          "internalType": "uint8",
          "name": "_age",
          "type": "uint8"
        },
        {
          "internalType": "string",
          "name": "_state",
          "type": "string"
        }
      ],
      "name": "setup",
      "outputs": [],
      "stateMutability": "nonpayable",
      "type": "function"
    },
    {
      "inputs": [
        {
          "internalType": "address",
          "name": "_user",
          "type": "address"
        }
      ],
      "name": "follow",
      "outputs": [],
      "stateMutability": "nonpayable",
      "type": "function"
    },
    {
      "inputs": [],
      "name": "getUsersList",
      "outputs": [
        {
          "internalType": "address[]",
          "name": "",
          "type": "address[]"
        }
      ],
      "stateMutability": "view",
      "type": "function"
    }
  ],
  "bytecode": "0x608060405234801561001057600080fd5b50610f03806100206000396000f3fe608060405234801561001057600080fd5b50600436106100625760003560e01c80634dbf27cc1461006757806364f7d043146100835780637f590f5e1461009f5780639f4216e8146100bb578063a87430ba146100eb578063c74e13f31461011d575b600080fd5b610081600480360381019061007c9190610981565b61013b565b005b61009d60048036038101906100989190610b63565b61021a565b005b6100b960048036038101906100b49190610bd2565b6104f8565b005b6100d560048036038101906100d09190610c51565b610592565b6040516100e29190610c8d565b60405180910390f35b61010560048036038101906101009190610981565b6105d1565b60405161011493929190610d4e565b60405180910390f35b610125610690565b6040516101329190610e4a565b60405180910390f35b600073ffffffffffffffffffffffffffffffffffffffff168173ffffffffffffffffffffffffffffffffffffffff16141561017557600080fd5b6000803373ffffffffffffffffffffffffffffffffffffffff1673ffffffffffffffffffffffffffffffffffffffff168152602001908152602001600020600401819080600181540180825580915050600190039060005260206000200160009091909190916101000a81548173ffffffffffffffffffffffffffffffffffffffff021916908373ffffffffffffffffffffffffffffffffffffffff16021790555050565b6000602060ff161161022b57600080fd5b60006040518060a001604052808581526020018460ff1681526020018381526020016000803373ffffffffffffffffffffffffffffffffffffffff1673ffffffffffffffffffffffffffffffffffffffff168152602001908152602001600020600301805480602002602001604051908101604052809291908181526020016000905b8282101561035a5783829060005260206000200180546102cd90610e9b565b80601f01602080910402602001604051908101604052809291908181526020018280546102f990610e9b565b80156103465780601f1061031b57610100808354040283529160200191610346565b820191906000526020600020905b81548152906001019060200180831161032957829003601f168201915b5050505050815260200190600101906102ae565b5050505081526020016000803373ffffffffffffffffffffffffffffffffffffffff1673ffffffffffffffffffffffffffffffffffffffff16815260200190815260200160002060040180548060200260200160405190810160405280929190818152602001828054801561042457602002820191906000526020600020905b8160009054906101000a900473ffffffffffffffffffffffffffffffffffffffff1673ffffffffffffffffffffffffffffffffffffffff16815260200190600101908083116103da575b50505050508152509050806000803373ffffffffffffffffffffffffffffffffffffffff1673ffffffffffffffffffffffffffffffffffffffff1681526020019081526020016000206000820151816000015560208201518160010160006101000a81548160ff021916908360ff16021790555060408201518160020190805190602001906104b492919061071e565b5060608201518160030190805190602001906104d19291906107a4565b5060808201518160040190805190602001906104ee929190610804565b5090505050505050565b6000815111801561050b57506064815111155b61051457600080fd5b6000803373ffffffffffffffffffffffffffffffffffffffff1673ffffffffffffffffffffffffffffffffffffffff1681526020019081526020016000206003018190806001815401808255809150506001900390600052602060002001600090919091909150908051906020019061058e92919061071e565b5050565b600181815481106105a257600080fd5b906000526020600020016000915054906101000a900473ffffffffffffffffffffffffffffffffffffffff1681565b60006020528060005260406000206000915090508060000154908060010160009054906101000a900460ff169080600201805461060d90610e9b565b80601f016020809104026020016040519081016040528092919081815260200182805461063990610e9b565b80156106865780601f1061065b57610100808354040283529160200191610686565b820191906000526020600020905b81548152906001019060200180831161066957829003601f168201915b5050505050905083565b6060600180548060200260200160405190810160405280929190818152602001828054801561071457602002820191906000526020600020905b8160009054906101000a900473ffffffffffffffffffffffffffffffffffffffff1673ffffffffffffffffffffffffffffffffffffffff16815260200190600101908083116106ca575b5050505050905090565b82805461072a90610e9b565b90600052602060002090601f01602090048101928261074c5760008555610793565b82601f1061076557805160ff1916838001178555610793565b82800160010185558215610793579182015b82811115610792578251825591602001919060010190610777565b5b5090506107a0919061088e565b5090565b8280548282559060005260206000209081019282156107f3579160200282015b828111156107f25782518290805190602001906107e292919061071e565b50916020019190600101906107c4565b5b50905061080091906108ab565b5090565b82805482825590600052602060002090810192821561087d579160200282015b8281111561087c5782518260006101000a81548173ffffffffffffffffffffffffffffffffffffffff021916908373ffffffffffffffffffffffffffffffffffffffff16021790555091602001919060010190610824565b5b50905061088a919061088e565b5090565b5b808211156108a757600081600090555060010161088f565b5090565b5b808211156108cb57600081816108c291906108cf565b506001016108ac565b5090565b5080546108db90610e9b565b6000825580601f106108ed575061090c565b601f01602090049060005260206000209081019061090b919061088e565b5b50565b6000604051905090565b600080fd5b600080fd5b600073ffffffffffffffffffffffffffffffffffffffff82169050919050565b600061094e82610923565b9050919050565b61095e81610943565b811461096957600080fd5b50565b60008135905061097b81610955565b92915050565b60006020828403121561099757610996610919565b5b60006109a58482850161096c565b91505092915050565b6000819050919050565b6109c1816109ae565b81146109cc57600080fd5b50565b6000813590506109de816109b8565b92915050565b600060ff82169050919050565b6109fa816109e4565b8114610a0557600080fd5b50565b600081359050610a17816109f1565b92915050565b600080fd5b600080fd5b6000601f19601f8301169050919050565b7f4e487b7100000000000000000000000000000000000000000000000000000000600052604160045260246000fd5b610a7082610a27565b810181811067ffffffffffffffff82111715610a8f57610a8e610a38565b5b80604052505050565b6000610aa261090f565b9050610aae8282610a67565b919050565b600067ffffffffffffffff821115610ace57610acd610a38565b5b610ad782610a27565b9050602081019050919050565b82818337600083830152505050565b6000610b06610b0184610ab3565b610a98565b905082815260208101848484011115610b2257610b21610a22565b5b610b2d848285610ae4565b509392505050565b600082601f830112610b4a57610b49610a1d565b5b8135610b5a848260208601610af3565b91505092915050565b600080600060608486031215610b7c57610b7b610919565b5b6000610b8a868287016109cf565b9350506020610b9b86828701610a08565b925050604084013567ffffffffffffffff811115610bbc57610bbb61091e565b5b610bc886828701610b35565b9150509250925092565b600060208284031215610be857610be7610919565b5b600082013567ffffffffffffffff811115610c0657610c0561091e565b5b610c1284828501610b35565b91505092915050565b6000819050919050565b610c2e81610c1b565b8114610c3957600080fd5b50565b600081359050610c4b81610c25565b92915050565b600060208284031215610c6757610c66610919565b5b6000610c7584828501610c3c565b91505092915050565b610c8781610943565b82525050565b6000602082019050610ca26000830184610c7e565b92915050565b610cb1816109ae565b82525050565b610cc0816109e4565b82525050565b600081519050919050565b600082825260208201905092915050565b60005b83811015610d00578082015181840152602081019050610ce5565b83811115610d0f576000848401525b50505050565b6000610d2082610cc6565b610d2a8185610cd1565b9350610d3a818560208601610ce2565b610d4381610a27565b840191505092915050565b6000606082019050610d636000830186610ca8565b610d706020830185610cb7565b8181036040830152610d828184610d15565b9050949350505050565b600081519050919050565b600082825260208201905092915050565b6000819050602082019050919050565b610dc181610943565b82525050565b6000610dd38383610db8565b60208301905092915050565b6000602082019050919050565b6000610df782610d8c565b610e018185610d97565b9350610e0c83610da8565b8060005b83811015610e3d578151610e248882610dc7565b9750610e2f83610ddf565b925050600181019050610e10565b5085935050505092915050565b60006020820190508181036000830152610e648184610dec565b905092915050565b7f4e487b7100000000000000000000000000000000000000000000000000000000600052602260045260246000fd5b60006002820490506001821680610eb357607f821691505b60208210811415610ec757610ec6610e6c565b5b5091905056fea26469706673582212208c8275d256d6b2ee7fa106f7d8710d781064c93ab0d8e91745b3dea06dfe2bdb64736f6c634300080a0033",
  "immutableReferences": {},
  "source": "pragma solidity 0.8.10;\r\n\r\ncontract SocialMusic {\r\n    \r\n    struct User {\r\n        bytes32 name;\r\n        uint8 age;\r\n        string state; //A short description of who they are and what they feel.\r\n        string[] musicRecommendations;\r\n        address[] following;\r\n    }\r\n\r\n    mapping(address => User) public users;\r\n    address[] public userList;\r\n    //To add a new music recommendation\r\n    function addSong(string memory _songName) public {\r\n        require(bytes(_songName).length > 0 && bytes(_songName).length <= 100);\r\n\r\n        users[msg.sender].musicRecommendations.push(_songName);\r\n    }\r\n\r\n    //To setup user information\r\n    function setup(bytes32 _name, uint8 _age, string memory _state) public {\r\n        require(_name.length > 0);\r\n\r\n        User memory newUser = User(_name, _age, _state,\r\n        users[msg.sender].musicRecommendations, users[msg.sender].following);\r\n\r\n        users[msg.sender] = newUser;\r\n    }\r\n\r\n    //To follow new users\r\n    function follow(address _user) public {\r\n         require(_user != address(0));\r\n\r\n         users[msg.sender].following.push(_user);       \r\n    }\r\n\r\n    //Returns the array of users\r\n    function getUsersList() public view returns(address[] memory) {\r\n        return userList;\r\n    }\r\n}\r\n",
  "sourcePath": "F:\\Ethereum\\Projects\\Music-Social-Media-dApp\\contracts\\SocialMusic.sol",
  "compiler": {
    "name": "solc",
    "version": "0.8.10+commit.fc410830.Emscripten.clang"
  },
  "schemaVersion": "3.4.4",
  "updatedAt": "2022-01-16T07:01:37.812Z",
  "devdoc": {
    "kind": "dev",
    "methods": {},
    "version": 1
  },
  "userdoc": {
    "kind": "user",
    "methods": {},
    "version": 1
  }
}