{
  "contractName": "socialMusic",
  "abi": [
    {
      "inputs": [
        {
          "internalType": "address",
          "name": "",
          "type": "address"
        }
      ],
      "name": "users",
      "outputs": [
        {
          "internalType": "bytes32",
          "name": "name",
          "type": "bytes32"
        },
        {
          "internalType": "uint8",
          "name": "age",
          "type": "uint8"
        },
        {
          "internalType": "string",
          "name": "state",
          "type": "string"
        }
      ],
      "stateMutability": "view",
      "type": "function"
    },
    {
      "inputs": [
        {
          "internalType": "string",
          "name": "_songName",
          "type": "string"
        }
      ],
      "name": "addSong",
      "outputs": [],
      "stateMutability": "nonpayable",
      "type": "function"
    },
    {
      "inputs": [
        {
          "internalType": "bytes32",
          "name": "_name",
          "type": "bytes32"
        },
        {
          "internalType": "uint8",
          "name": "_age",
          "type": "uint8"
        },
        {
          "internalType": "string",
          "name": "_state",
          "type": "string"
        }
      ],
      "name": "setup",
      "outputs": [],
      "stateMutability": "nonpayable",
      "type": "function"
    },
    {
      "inputs": [
        {
          "internalType": "address",
          "name": "_user",
          "type": "address"
        }
      ],
      "name": "follow",
      "outputs": [],
      "stateMutability": "nonpayable",
      "type": "function"
    }
  ],
  "bytecode": "0x608060405234801561001057600080fd5b50610c65806100206000396000f3fe608060405234801561001057600080fd5b506004361061004c5760003560e01c80634dbf27cc1461005157806364f7d0431461006d5780637f590f5e14610089578063a87430ba146100a5575b600080fd5b61006b60048036038101906100669190610850565b6100d7565b005b61008760048036038101906100829190610a32565b6101b6565b005b6100a3600480360381019061009e9190610aa1565b610494565b005b6100bf60048036038101906100ba9190610850565b61052e565b6040516100ce93929190610b90565b60405180910390f35b600073ffffffffffffffffffffffffffffffffffffffff168173ffffffffffffffffffffffffffffffffffffffff16141561011157600080fd5b6000803373ffffffffffffffffffffffffffffffffffffffff1673ffffffffffffffffffffffffffffffffffffffff168152602001908152602001600020600401819080600181540180825580915050600190039060005260206000200160009091909190916101000a81548173ffffffffffffffffffffffffffffffffffffffff021916908373ffffffffffffffffffffffffffffffffffffffff16021790555050565b6000602060ff16116101c757600080fd5b60006040518060a001604052808581526020018460ff1681526020018381526020016000803373ffffffffffffffffffffffffffffffffffffffff1673ffffffffffffffffffffffffffffffffffffffff168152602001908152602001600020600301805480602002602001604051908101604052809291908181526020016000905b828210156102f657838290600052602060002001805461026990610bfd565b80601f016020809104026020016040519081016040528092919081815260200182805461029590610bfd565b80156102e25780601f106102b7576101008083540402835291602001916102e2565b820191906000526020600020905b8154815290600101906020018083116102c557829003601f168201915b50505050508152602001906001019061024a565b5050505081526020016000803373ffffffffffffffffffffffffffffffffffffffff1673ffffffffffffffffffffffffffffffffffffffff1681526020019081526020016000206004018054806020026020016040519081016040528092919081815260200182805480156103c057602002820191906000526020600020905b8160009054906101000a900473ffffffffffffffffffffffffffffffffffffffff1673ffffffffffffffffffffffffffffffffffffffff1681526020019060010190808311610376575b50505050508152509050806000803373ffffffffffffffffffffffffffffffffffffffff1673ffffffffffffffffffffffffffffffffffffffff1681526020019081526020016000206000820151816000015560208201518160010160006101000a81548160ff021916908360ff16021790555060408201518160020190805190602001906104509291906105ed565b50606082015181600301908051906020019061046d929190610673565b50608082015181600401908051906020019061048a9291906106d3565b5090505050505050565b600081511180156104a757506064815111155b6104b057600080fd5b6000803373ffffffffffffffffffffffffffffffffffffffff1673ffffffffffffffffffffffffffffffffffffffff1681526020019081526020016000206003018190806001815401808255809150506001900390600052602060002001600090919091909150908051906020019061052a9291906105ed565b5050565b60006020528060005260406000206000915090508060000154908060010160009054906101000a900460ff169080600201805461056a90610bfd565b80601f016020809104026020016040519081016040528092919081815260200182805461059690610bfd565b80156105e35780601f106105b8576101008083540402835291602001916105e3565b820191906000526020600020905b8154815290600101906020018083116105c657829003601f168201915b5050505050905083565b8280546105f990610bfd565b90600052602060002090601f01602090048101928261061b5760008555610662565b82601f1061063457805160ff1916838001178555610662565b82800160010185558215610662579182015b82811115610661578251825591602001919060010190610646565b5b50905061066f919061075d565b5090565b8280548282559060005260206000209081019282156106c2579160200282015b828111156106c15782518290805190602001906106b19291906105ed565b5091602001919060010190610693565b5b5090506106cf919061077a565b5090565b82805482825590600052602060002090810192821561074c579160200282015b8281111561074b5782518260006101000a81548173ffffffffffffffffffffffffffffffffffffffff021916908373ffffffffffffffffffffffffffffffffffffffff160217905550916020019190600101906106f3565b5b509050610759919061075d565b5090565b5b8082111561077657600081600090555060010161075e565b5090565b5b8082111561079a5760008181610791919061079e565b5060010161077b565b5090565b5080546107aa90610bfd565b6000825580601f106107bc57506107db565b601f0160209004906000526020600020908101906107da919061075d565b5b50565b6000604051905090565b600080fd5b600080fd5b600073ffffffffffffffffffffffffffffffffffffffff82169050919050565b600061081d826107f2565b9050919050565b61082d81610812565b811461083857600080fd5b50565b60008135905061084a81610824565b92915050565b600060208284031215610866576108656107e8565b5b60006108748482850161083b565b91505092915050565b6000819050919050565b6108908161087d565b811461089b57600080fd5b50565b6000813590506108ad81610887565b92915050565b600060ff82169050919050565b6108c9816108b3565b81146108d457600080fd5b50565b6000813590506108e6816108c0565b92915050565b600080fd5b600080fd5b6000601f19601f8301169050919050565b7f4e487b7100000000000000000000000000000000000000000000000000000000600052604160045260246000fd5b61093f826108f6565b810181811067ffffffffffffffff8211171561095e5761095d610907565b5b80604052505050565b60006109716107de565b905061097d8282610936565b919050565b600067ffffffffffffffff82111561099d5761099c610907565b5b6109a6826108f6565b9050602081019050919050565b82818337600083830152505050565b60006109d56109d084610982565b610967565b9050828152602081018484840111156109f1576109f06108f1565b5b6109fc8482856109b3565b509392505050565b600082601f830112610a1957610a186108ec565b5b8135610a298482602086016109c2565b91505092915050565b600080600060608486031215610a4b57610a4a6107e8565b5b6000610a598682870161089e565b9350506020610a6a868287016108d7565b925050604084013567ffffffffffffffff811115610a8b57610a8a6107ed565b5b610a9786828701610a04565b9150509250925092565b600060208284031215610ab757610ab66107e8565b5b600082013567ffffffffffffffff811115610ad557610ad46107ed565b5b610ae184828501610a04565b91505092915050565b610af38161087d565b82525050565b610b02816108b3565b82525050565b600081519050919050565b600082825260208201905092915050565b60005b83811015610b42578082015181840152602081019050610b27565b83811115610b51576000848401525b50505050565b6000610b6282610b08565b610b6c8185610b13565b9350610b7c818560208601610b24565b610b85816108f6565b840191505092915050565b6000606082019050610ba56000830186610aea565b610bb26020830185610af9565b8181036040830152610bc48184610b57565b9050949350505050565b7f4e487b7100000000000000000000000000000000000000000000000000000000600052602260045260246000fd5b60006002820490506001821680610c1557607f821691505b60208210811415610c2957610c28610bce565b5b5091905056fea264697066735822122046dc2604b477cf2ec5b9c4ed305d6305106c18f8595a0d21a9b9a60e7c1d9de464736f6c634300080a0033",
  "immutableReferences": {},
  "source": "pragma solidity 0.8.10;\r\n\r\ncontract socialMusic {\r\n    \r\n    struct User {\r\n        bytes32 name;\r\n        uint8 age;\r\n        string state; //A short description of who they are and what they feel.\r\n        string[] musicRecommendations;\r\n        address[] following;\r\n    }\r\n\r\n    mapping(address => User) public users;\r\n\r\n    //To add a new music recommendation\r\n    function addSong(string memory _songName) public {\r\n        require(bytes(_songName).length > 0 && bytes(_songName).length <= 100);\r\n\r\n        users[msg.sender].musicRecommendations.push(_songName);\r\n    }\r\n\r\n    //To setup user information\r\n    function setup(bytes32 _name, uint8 _age, string memory _state) public {\r\n        require(_name.length > 0);\r\n\r\n        User memory newUser = User(_name, _age, _state,\r\n        users[msg.sender].musicRecommendations, users[msg.sender].following);\r\n\r\n        users[msg.sender] = newUser;\r\n    }\r\n\r\n    //To follow new users\r\n    function follow(address _user) public {\r\n         require(_user != address(0));\r\n\r\n         users[msg.sender].following.push(_user);       \r\n    }\r\n}\r\n",
  "sourcePath": "F:\\Ethereum\\Projects\\Music-Social-Media-dApp\\contracts\\SocialMusic.sol",
  "compiler": {
    "name": "solc",
    "version": "0.8.10+commit.fc410830.Emscripten.clang"
  },
  "schemaVersion": "3.4.4",
  "updatedAt": "2022-01-09T11:43:17.176Z",
  "devdoc": {
    "kind": "dev",
    "methods": {},
    "version": 1
  },
  "userdoc": {
    "kind": "user",
    "methods": {},
    "version": 1
  }
}